:03000000020003F8
:0C000300787FE4F6D8FD75811702004AF2
:1000D00010080606060606060606060606060606B4
:0200E000060612
:1000B000E4FEC280EF30E004D2818002C281000001
:0F00C00000D280EFC313FF0EBE08E7C280C281DB
:0100CF00220E
:0D00E300D282000000000000C2820200B0C6
:10008F007F401200E37FC01200E3E4FD74082DF8F7
:10009F00E6FF1200B00DBD10F37F8C1200E3D28289
:0100AF00222E
:0500F00012008F80FBEF
:10000F000200F0E493A3F8E493A34003F68001F217
:10001F0008DFF48029E493A3F85407240CC8C333F2
:10002F00C4540F4420C8834004F456800146F6DFC1
:10003F00E4800B01020408102040809000D0E47E81
:10004F00019360BCA3FF543F30E509541FFEE493B6
:10005F00A360010ECF54C025E060A840B8E493A37D
:10006F00FAE493A3F8E493A3C8C582C8CAC583CAA8
:10007F00F0A3C8C582C8CAC583CADFE9DEE780BE60
:0100E200001D
:00000001FF
